{
  "_format": "hh-sol-artifact-1",
  "contractName": "Chase",
  "sourceName": "contracts/Chase.sol",
  "abi": [
    {
      "inputs": [
        {
          "internalType": "uint256",
          "name": "_noOfClaims",
          "type": "uint256"
        }
      ],
      "stateMutability": "payable",
      "type": "constructor"
    },
    {
      "inputs": [],
      "name": "claim",
      "outputs": [],
      "stateMutability": "nonpayable",
      "type": "function"
    },
    {
      "inputs": [],
      "name": "deposit",
      "outputs": [],
      "stateMutability": "payable",
      "type": "function"
    },
    {
      "inputs": [
        {
          "internalType": "address",
          "name": "",
          "type": "address"
        }
      ],
      "name": "hasClaimed",
      "outputs": [
        {
          "internalType": "bool",
          "name": "",
          "type": "bool"
        }
      ],
      "stateMutability": "view",
      "type": "function"
    },
    {
      "inputs": [],
      "name": "noOfClaims",
      "outputs": [
        {
          "internalType": "uint256",
          "name": "",
          "type": "uint256"
        }
      ],
      "stateMutability": "view",
      "type": "function"
    },
    {
      "inputs": [],
      "name": "owner",
      "outputs": [
        {
          "internalType": "address",
          "name": "",
          "type": "address"
        }
      ],
      "stateMutability": "view",
      "type": "function"
    },
    {
      "inputs": [],
      "name": "totalAmount",
      "outputs": [
        {
          "internalType": "uint256",
          "name": "",
          "type": "uint256"
        }
      ],
      "stateMutability": "view",
      "type": "function"
    },
    {
      "inputs": [],
      "name": "totalClaimedCount",
      "outputs": [
        {
          "internalType": "uint256",
          "name": "",
          "type": "uint256"
        }
      ],
      "stateMutability": "view",
      "type": "function"
    },
    {
      "inputs": [],
      "name": "withdrawRemaining",
      "outputs": [],
      "stateMutability": "nonpayable",
      "type": "function"
    }
  ],
  "bytecode": "0x60806040526040516105f83803806105f8833981016040819052610022916100a6565b600034116100885760405162461bcd60e51b815260206004820152602960248201527f496e697469616c206465706f736974206d7573742062652067726561746572206044820152687468616e207a65726f60b81b606482015260840160405180910390fd5b600080546001600160a01b03191633179055346001556003556100bf565b6000602082840312156100b857600080fd5b5051919050565b61052a806100ce6000396000f3fe60806040526004361061007b5760003560e01c8063a1b4f0141161004e578063a1b4f01414610138578063d0e30db01461014e578063ec07a13e14610156578063ee38db951461016c57600080fd5b80631a39d8ef146100805780634e71d92d146100a957806373b2e80e146100c05780638da5cb5b14610100575b600080fd5b34801561008c57600080fd5b5061009660015481565b6040519081526020015b60405180910390f35b3480156100b557600080fd5b506100be610181565b005b3480156100cc57600080fd5b506100f06100db366004610447565b60046020526000908152604090205460ff1681565b60405190151581526020016100a0565b34801561010c57600080fd5b50600054610120906001600160a01b031681565b6040516001600160a01b0390911681526020016100a0565b34801561014457600080fd5b5061009660025481565b6100be610331565b34801561016257600080fd5b5061009660035481565b34801561017857600080fd5b506100be61034a565b6000600254600354610193919061048d565b9050600081116101ea5760405162461bcd60e51b815260206004820152601860248201527f4e6f206d6f726520636c61696d7320617661696c61626c65000000000000000060448201526064015b60405180910390fd5b60006001541161023c5760405162461bcd60e51b815260206004820152601960248201527f4e6f2045544820617661696c61626c6520746f20636c61696d0000000000000060448201526064016101e1565b3360009081526004602052604090205460ff161561029c5760405162461bcd60e51b815260206004820152601860248201527f596f75206861766520616c726561647920636c61696d6564000000000000000060448201526064016101e1565b60006002546003546102ae919061048d565b6001546102bb91906104a6565b905080600160008282546102cf919061048d565b9091555050600280549060006102e4836104c8565b909155505033600081815260046020526040808220805460ff191660011790555183156108fc0291849190818181858888f1935050505015801561032c573d6000803e3d6000fd5b505050565b346001600082825461034391906104e1565b9091555050565b6000546001600160a01b031633146103b25760405162461bcd60e51b815260206004820152602560248201527f4f6e6c7920746865206f776e65722063616e2063616c6c20746869732066756e60448201526431ba34b7b760d91b60648201526084016101e1565b6000600154116104045760405162461bcd60e51b815260206004820152601c60248201527f4e6f2045544820617661696c61626c6520746f2077697468647261770000000060448201526064016101e1565b600080546001546040516001600160a01b039092169281156108fc029290818181858888f1935050505015801561043f573d6000803e3d6000fd5b506000600155565b60006020828403121561045957600080fd5b81356001600160a01b038116811461047057600080fd5b9392505050565b634e487b7160e01b600052601160045260246000fd5b818103818111156104a0576104a0610477565b92915050565b6000826104c357634e487b7160e01b600052601260045260246000fd5b500490565b6000600182016104da576104da610477565b5060010190565b808201808211156104a0576104a061047756fea26469706673582212206a1c2ee6759b566e0646e4a2422e03d6ae09ec6aeb2603e49bb5dfec9b8591f264736f6c63430008130033",
  "linkReferences": {},
  "deployedLinkReferences": {}
}